{
  "contractName": "NFT_Token",
  "abi": [
    {
      "inputs": [
        {
          "internalType": "string",
          "name": "name",
          "type": "string"
        },
        {
          "internalType": "string",
          "name": "symbol",
          "type": "string"
        }
      ],
      "stateMutability": "nonpayable",
      "type": "constructor"
    },
    {
      "anonymous": false,
      "inputs": [
        {
          "indexed": true,
          "internalType": "address",
          "name": "owner",
          "type": "address"
        },
        {
          "indexed": true,
          "internalType": "address",
          "name": "approved",
          "type": "address"
        },
        {
          "indexed": true,
          "internalType": "uint256",
          "name": "tokenId",
          "type": "uint256"
        }
      ],
      "name": "Approval",
      "type": "event"
    },
    {
      "anonymous": false,
      "inputs": [
        {
          "indexed": true,
          "internalType": "address",
          "name": "owner",
          "type": "address"
        },
        {
          "indexed": true,
          "internalType": "address",
          "name": "operator",
          "type": "address"
        },
        {
          "indexed": false,
          "internalType": "bool",
          "name": "approved",
          "type": "bool"
        }
      ],
      "name": "ApprovalForAll",
      "type": "event"
    },
    {
      "anonymous": false,
      "inputs": [
        {
          "indexed": true,
          "internalType": "address",
          "name": "previousOwner",
          "type": "address"
        },
        {
          "indexed": true,
          "internalType": "address",
          "name": "newOwner",
          "type": "address"
        }
      ],
      "name": "OwnershipTransferred",
      "type": "event"
    },
    {
      "anonymous": false,
      "inputs": [
        {
          "indexed": true,
          "internalType": "address",
          "name": "from",
          "type": "address"
        },
        {
          "indexed": true,
          "internalType": "address",
          "name": "to",
          "type": "address"
        },
        {
          "indexed": true,
          "internalType": "uint256",
          "name": "tokenId",
          "type": "uint256"
        }
      ],
      "name": "Transfer",
      "type": "event"
    },
    {
      "inputs": [
        {
          "internalType": "address",
          "name": "to",
          "type": "address"
        },
        {
          "internalType": "uint256",
          "name": "tokenId",
          "type": "uint256"
        }
      ],
      "name": "approve",
      "outputs": [],
      "stateMutability": "nonpayable",
      "type": "function"
    },
    {
      "inputs": [
        {
          "internalType": "address",
          "name": "owner",
          "type": "address"
        }
      ],
      "name": "balanceOf",
      "outputs": [
        {
          "internalType": "uint256",
          "name": "",
          "type": "uint256"
        }
      ],
      "stateMutability": "view",
      "type": "function",
      "constant": true
    },
    {
      "inputs": [
        {
          "internalType": "uint256",
          "name": "tokenId",
          "type": "uint256"
        }
      ],
      "name": "getApproved",
      "outputs": [
        {
          "internalType": "address",
          "name": "",
          "type": "address"
        }
      ],
      "stateMutability": "view",
      "type": "function",
      "constant": true
    },
    {
      "inputs": [
        {
          "internalType": "address",
          "name": "owner",
          "type": "address"
        },
        {
          "internalType": "address",
          "name": "operator",
          "type": "address"
        }
      ],
      "name": "isApprovedForAll",
      "outputs": [
        {
          "internalType": "bool",
          "name": "",
          "type": "bool"
        }
      ],
      "stateMutability": "view",
      "type": "function",
      "constant": true
    },
    {
      "inputs": [],
      "name": "name",
      "outputs": [
        {
          "internalType": "string",
          "name": "",
          "type": "string"
        }
      ],
      "stateMutability": "view",
      "type": "function",
      "constant": true
    },
    {
      "inputs": [],
      "name": "owner",
      "outputs": [
        {
          "internalType": "address",
          "name": "",
          "type": "address"
        }
      ],
      "stateMutability": "view",
      "type": "function",
      "constant": true
    },
    {
      "inputs": [
        {
          "internalType": "uint256",
          "name": "tokenId",
          "type": "uint256"
        }
      ],
      "name": "ownerOf",
      "outputs": [
        {
          "internalType": "address",
          "name": "",
          "type": "address"
        }
      ],
      "stateMutability": "view",
      "type": "function",
      "constant": true
    },
    {
      "inputs": [],
      "name": "renounceOwnership",
      "outputs": [],
      "stateMutability": "nonpayable",
      "type": "function"
    },
    {
      "inputs": [
        {
          "internalType": "address",
          "name": "from",
          "type": "address"
        },
        {
          "internalType": "address",
          "name": "to",
          "type": "address"
        },
        {
          "internalType": "uint256",
          "name": "tokenId",
          "type": "uint256"
        }
      ],
      "name": "safeTransferFrom",
      "outputs": [],
      "stateMutability": "nonpayable",
      "type": "function"
    },
    {
      "inputs": [
        {
          "internalType": "address",
          "name": "from",
          "type": "address"
        },
        {
          "internalType": "address",
          "name": "to",
          "type": "address"
        },
        {
          "internalType": "uint256",
          "name": "tokenId",
          "type": "uint256"
        },
        {
          "internalType": "bytes",
          "name": "_data",
          "type": "bytes"
        }
      ],
      "name": "safeTransferFrom",
      "outputs": [],
      "stateMutability": "nonpayable",
      "type": "function"
    },
    {
      "inputs": [
        {
          "internalType": "address",
          "name": "operator",
          "type": "address"
        },
        {
          "internalType": "bool",
          "name": "approved",
          "type": "bool"
        }
      ],
      "name": "setApprovalForAll",
      "outputs": [],
      "stateMutability": "nonpayable",
      "type": "function"
    },
    {
      "inputs": [
        {
          "internalType": "bytes4",
          "name": "interfaceId",
          "type": "bytes4"
        }
      ],
      "name": "supportsInterface",
      "outputs": [
        {
          "internalType": "bool",
          "name": "",
          "type": "bool"
        }
      ],
      "stateMutability": "view",
      "type": "function",
      "constant": true
    },
    {
      "inputs": [],
      "name": "symbol",
      "outputs": [
        {
          "internalType": "string",
          "name": "",
          "type": "string"
        }
      ],
      "stateMutability": "view",
      "type": "function",
      "constant": true
    },
    {
      "inputs": [
        {
          "internalType": "uint256",
          "name": "tokenId",
          "type": "uint256"
        }
      ],
      "name": "tokenURI",
      "outputs": [
        {
          "internalType": "string",
          "name": "",
          "type": "string"
        }
      ],
      "stateMutability": "view",
      "type": "function",
      "constant": true
    },
    {
      "inputs": [
        {
          "internalType": "address",
          "name": "from",
          "type": "address"
        },
        {
          "internalType": "address",
          "name": "to",
          "type": "address"
        },
        {
          "internalType": "uint256",
          "name": "tokenId",
          "type": "uint256"
        }
      ],
      "name": "transferFrom",
      "outputs": [],
      "stateMutability": "nonpayable",
      "type": "function"
    },
    {
      "inputs": [
        {
          "internalType": "address",
          "name": "newOwner",
          "type": "address"
        }
      ],
      "name": "transferOwnership",
      "outputs": [],
      "stateMutability": "nonpayable",
      "type": "function"
    },
    {
      "inputs": [
        {
          "internalType": "uint256",
          "name": "tokenId",
          "type": "uint256"
        }
      ],
      "name": "getTokenDetails",
      "outputs": [
        {
          "components": [
            {
              "internalType": "uint8",
              "name": "damage",
              "type": "uint8"
            },
            {
              "internalType": "uint8",
              "name": "magic",
              "type": "uint8"
            },
            {
              "internalType": "uint256",
              "name": "lastMeal",
              "type": "uint256"
            },
            {
              "internalType": "uint256",
              "name": "endurance",
              "type": "uint256"
            }
          ],
          "internalType": "struct NFT_Token.Pet",
          "name": "",
          "type": "tuple"
        }
      ],
      "stateMutability": "view",
      "type": "function",
      "constant": true
    },
    {
      "inputs": [
        {
          "internalType": "uint8",
          "name": "_damage",
          "type": "uint8"
        },
        {
          "internalType": "uint8",
          "name": "_magic",
          "type": "uint8"
        },
        {
          "internalType": "uint256",
          "name": "_endurance",
          "type": "uint256"
        }
      ],
      "name": "mint",
      "outputs": [],
      "stateMutability": "nonpayable",
      "type": "function"
    },
    {
      "inputs": [
        {
          "internalType": "uint256",
          "name": "tokenId",
          "type": "uint256"
        }
      ],
      "name": "feed",
      "outputs": [],
      "stateMutability": "nonpayable",
      "type": "function"
    }
  ],
  "bytecode": "0x608060405260006007553480156200001657600080fd5b50604051620031fb380380620031fb83398181016040528101906200003c91906200028a565b818181600090805190602001906200005692919062000168565b5080600190805190602001906200006f92919062000168565b50505062000092620000866200009a60201b60201c565b620000a260201b60201c565b50506200042e565b600033905090565b6000600660009054906101000a900473ffffffffffffffffffffffffffffffffffffffff16905081600660006101000a81548173ffffffffffffffffffffffffffffffffffffffff021916908373ffffffffffffffffffffffffffffffffffffffff1602179055508173ffffffffffffffffffffffffffffffffffffffff168173ffffffffffffffffffffffffffffffffffffffff167f8be0079c531659141344cd1fd0a4f28419497f9722a3daafe3b4186f6b6457e060405160405180910390a35050565b82805462000176906200039a565b90600052602060002090601f0160209004810192826200019a5760008555620001e6565b82601f10620001b557805160ff1916838001178555620001e6565b82800160010185558215620001e6579182015b82811115620001e5578251825591602001919060010190620001c8565b5b509050620001f59190620001f9565b5090565b5b8082111562000214576000816000905550600101620001fa565b5090565b60006200022f620002298462000331565b620002fd565b9050828152602081018484840111156200024857600080fd5b6200025584828562000364565b509392505050565b600082601f8301126200026f57600080fd5b81516200028184826020860162000218565b91505092915050565b600080604083850312156200029e57600080fd5b600083015167ffffffffffffffff811115620002b957600080fd5b620002c7858286016200025d565b925050602083015167ffffffffffffffff811115620002e557600080fd5b620002f3858286016200025d565b9150509250929050565b6000604051905081810181811067ffffffffffffffff82111715620003275762000326620003ff565b5b8060405250919050565b600067ffffffffffffffff8211156200034f576200034e620003ff565b5b601f19601f8301169050602081019050919050565b60005b838110156200038457808201518184015260208101905062000367565b8381111562000394576000848401525b50505050565b60006002820490506001821680620003b357607f821691505b60208210811415620003ca57620003c9620003d0565b5b50919050565b7f4e487b7100000000000000000000000000000000000000000000000000000000600052602260045260246000fd5b7f4e487b7100000000000000000000000000000000000000000000000000000000600052604160045260246000fd5b612dbd806200043e6000396000f3fe608060405234801561001057600080fd5b50600436106101215760003560e01c80638da5cb5b116100ad578063c87b56dd11610071578063c87b56dd14610306578063e985e9c514610336578063eb22ed3214610366578063f2fde38b14610382578063f59dfdfb1461039e57610121565b80638da5cb5b1461026257806395d89b4114610280578063a22cb4651461029e578063b88d4fde146102ba578063c1e03728146102d657610121565b806323b872dd116100f457806323b872dd146101c057806342842e0e146101dc5780636352211e146101f857806370a0823114610228578063715018a61461025857610121565b806301ffc9a71461012657806306fdde0314610156578063081812fc14610174578063095ea7b3146101a4575b600080fd5b610140600480360381019061013b9190611ea6565b6103ba565b60405161014d9190612706565b60405180910390f35b61015e61049c565b60405161016b9190612721565b60405180910390f35b61018e60048036038101906101899190611ef8565b61052e565b60405161019b919061269f565b60405180910390f35b6101be60048036038101906101b99190611e6a565b6105b3565b005b6101da60048036038101906101d59190611d64565b6106cb565b005b6101f660048036038101906101f19190611d64565b61072b565b005b610212600480360381019061020d9190611ef8565b61074b565b60405161021f919061269f565b60405180910390f35b610242600480360381019061023d9190611cff565b6107fd565b60405161024f919061295e565b60405180910390f35b6102606108b5565b005b61026a61093d565b604051610277919061269f565b60405180910390f35b610288610967565b6040516102959190612721565b60405180910390f35b6102b860048036038101906102b39190611e2e565b6109f9565b005b6102d460048036038101906102cf9190611db3565b610b7a565b005b6102f060048036038101906102eb9190611ef8565b610bdc565b6040516102fd9190612943565b60405180910390f35b610320600480360381019061031b9190611ef8565b610c57565b60405161032d9190612721565b60405180910390f35b610350600480360381019061034b9190611d28565b610cfe565b60405161035d9190612706565b60405180910390f35b610380600480360381019061037b9190611f21565b610d92565b005b61039c60048036038101906103979190611cff565b610ecc565b005b6103b860048036038101906103b39190611ef8565b610fc4565b005b60007f80ac58cd000000000000000000000000000000000000000000000000000000007bffffffffffffffffffffffffffffffffffffffffffffffffffffffff1916827bffffffffffffffffffffffffffffffffffffffffffffffffffffffff1916148061048557507f5b5e139f000000000000000000000000000000000000000000000000000000007bffffffffffffffffffffffffffffffffffffffffffffffffffffffff1916827bffffffffffffffffffffffffffffffffffffffffffffffffffffffff1916145b80610495575061049482611007565b5b9050919050565b6060600080546104ab90612b9b565b80601f01602080910402602001604051908101604052809291908181526020018280546104d790612b9b565b80156105245780601f106104f957610100808354040283529160200191610524565b820191906000526020600020905b81548152906001019060200180831161050757829003601f168201915b5050505050905090565b600061053982611071565b610578576040517f08c379a000000000000000000000000000000000000000000000000000000000815260040161056f90612883565b60405180910390fd5b6004600083815260200190815260200160002060009054906101000a900473ffffffffffffffffffffffffffffffffffffffff169050919050565b60006105be8261074b565b90508073ffffffffffffffffffffffffffffffffffffffff168373ffffffffffffffffffffffffffffffffffffffff16141561062f576040517f08c379a000000000000000000000000000000000000000000000000000000000815260040161062690612903565b60405180910390fd5b8073ffffffffffffffffffffffffffffffffffffffff1661064e6110dd565b73ffffffffffffffffffffffffffffffffffffffff16148061067d575061067c816106776110dd565b610cfe565b5b6106bc576040517f08c379a00000000000000000000000000000000000000000000000000000000081526004016106b390612803565b60405180910390fd5b6106c683836110e5565b505050565b6106dc6106d66110dd565b8261119e565b61071b576040517f08c379a000000000000000000000000000000000000000000000000000000000815260040161071290612923565b60405180910390fd5b61072683838361127c565b505050565b61074683838360405180602001604052806000815250610b7a565b505050565b6000806002600084815260200190815260200160002060009054906101000a900473ffffffffffffffffffffffffffffffffffffffff169050600073ffffffffffffffffffffffffffffffffffffffff168173ffffffffffffffffffffffffffffffffffffffff1614156107f4576040517f08c379a00000000000000000000000000000000000000000000000000000000081526004016107eb90612843565b60405180910390fd5b80915050919050565b60008073ffffffffffffffffffffffffffffffffffffffff168273ffffffffffffffffffffffffffffffffffffffff16141561086e576040517f08c379a000000000000000000000000000000000000000000000000000000000815260040161086590612823565b60405180910390fd5b600360008373ffffffffffffffffffffffffffffffffffffffff1673ffffffffffffffffffffffffffffffffffffffff168152602001908152602001600020549050919050565b6108bd6110dd565b73ffffffffffffffffffffffffffffffffffffffff166108db61093d565b73ffffffffffffffffffffffffffffffffffffffff1614610931576040517f08c379a0000000000000000000000000000000000000000000000000000000008152600401610928906128a3565b60405180910390fd5b61093b60006114d8565b565b6000600660009054906101000a900473ffffffffffffffffffffffffffffffffffffffff16905090565b60606001805461097690612b9b565b80601f01602080910402602001604051908101604052809291908181526020018280546109a290612b9b565b80156109ef5780601f106109c4576101008083540402835291602001916109ef565b820191906000526020600020905b8154815290600101906020018083116109d257829003601f168201915b5050505050905090565b610a016110dd565b73ffffffffffffffffffffffffffffffffffffffff168273ffffffffffffffffffffffffffffffffffffffff161415610a6f576040517f08c379a0000000000000000000000000000000000000000000000000000000008152600401610a66906127c3565b60405180910390fd5b8060056000610a7c6110dd565b73ffffffffffffffffffffffffffffffffffffffff1673ffffffffffffffffffffffffffffffffffffffff16815260200190815260200160002060008473ffffffffffffffffffffffffffffffffffffffff1673ffffffffffffffffffffffffffffffffffffffff16815260200190815260200160002060006101000a81548160ff0219169083151502179055508173ffffffffffffffffffffffffffffffffffffffff16610b296110dd565b73ffffffffffffffffffffffffffffffffffffffff167f17307eab39ab6107e8899845ad3d59bd9653f200f220920489ca2b5937696c3183604051610b6e9190612706565b60405180910390a35050565b610b8b610b856110dd565b8361119e565b610bca576040517f08c379a0000000000000000000000000000000000000000000000000000000008152600401610bc190612923565b60405180910390fd5b610bd68484848461159e565b50505050565b610be4611beb565b600860008381526020019081526020016000206040518060800160405290816000820160009054906101000a900460ff1660ff1660ff1681526020016000820160019054906101000a900460ff1660ff1660ff168152602001600182015481526020016002820154815250509050919050565b6060610c6282611071565b610ca1576040517f08c379a0000000000000000000000000000000000000000000000000000000008152600401610c98906128e3565b60405180910390fd5b6000610cab6115fa565b90506000815111610ccb5760405180602001604052806000815250610cf6565b80610cd584611611565b604051602001610ce692919061267b565b6040516020818303038152906040525b915050919050565b6000600560008473ffffffffffffffffffffffffffffffffffffffff1673ffffffffffffffffffffffffffffffffffffffff16815260200190815260200160002060008373ffffffffffffffffffffffffffffffffffffffff1673ffffffffffffffffffffffffffffffffffffffff16815260200190815260200160002060009054906101000a900460ff16905092915050565b610d9a6110dd565b73ffffffffffffffffffffffffffffffffffffffff16610db861093d565b73ffffffffffffffffffffffffffffffffffffffff1614610e0e576040517f08c379a0000000000000000000000000000000000000000000000000000000008152600401610e05906128a3565b60405180910390fd5b60405180608001604052808460ff1681526020018360ff1681526020014281526020018281525060086000600754815260200190815260200160002060008201518160000160006101000a81548160ff021916908360ff16021790555060208201518160000160016101000a81548160ff021916908360ff1602179055506040820151816001015560608201518160020155905050610eaf336007546117be565b60076000815480929190610ec290612bcd565b9190505550505050565b610ed46110dd565b73ffffffffffffffffffffffffffffffffffffffff16610ef261093d565b73ffffffffffffffffffffffffffffffffffffffff1614610f48576040517f08c379a0000000000000000000000000000000000000000000000000000000008152600401610f3f906128a3565b60405180910390fd5b600073ffffffffffffffffffffffffffffffffffffffff168173ffffffffffffffffffffffffffffffffffffffff161415610fb8576040517f08c379a0000000000000000000000000000000000000000000000000000000008152600401610faf90612763565b60405180910390fd5b610fc1816114d8565b50565b600060086000838152602001908152602001600020905080600201548160010154610fef9190612a1d565b4210610ffa57600080fd5b4281600101819055505050565b60007f01ffc9a7000000000000000000000000000000000000000000000000000000007bffffffffffffffffffffffffffffffffffffffffffffffffffffffff1916827bffffffffffffffffffffffffffffffffffffffffffffffffffffffff1916149050919050565b60008073ffffffffffffffffffffffffffffffffffffffff166002600084815260200190815260200160002060009054906101000a900473ffffffffffffffffffffffffffffffffffffffff1673ffffffffffffffffffffffffffffffffffffffff1614159050919050565b600033905090565b816004600083815260200190815260200160002060006101000a81548173ffffffffffffffffffffffffffffffffffffffff021916908373ffffffffffffffffffffffffffffffffffffffff160217905550808273ffffffffffffffffffffffffffffffffffffffff166111588361074b565b73ffffffffffffffffffffffffffffffffffffffff167f8c5be1e5ebec7d5bd14f71427d1e84f3dd0314c0f7b2291e5b200ac8c7c3b92560405160405180910390a45050565b60006111a982611071565b6111e8576040517f08c379a00000000000000000000000000000000000000000000000000000000081526004016111df906127e3565b60405180910390fd5b60006111f38361074b565b90508073ffffffffffffffffffffffffffffffffffffffff168473ffffffffffffffffffffffffffffffffffffffff16148061126257508373ffffffffffffffffffffffffffffffffffffffff1661124a8461052e565b73ffffffffffffffffffffffffffffffffffffffff16145b8061127357506112728185610cfe565b5b91505092915050565b8273ffffffffffffffffffffffffffffffffffffffff1661129c8261074b565b73ffffffffffffffffffffffffffffffffffffffff16146112f2576040517f08c379a00000000000000000000000000000000000000000000000000000000081526004016112e9906128c3565b60405180910390fd5b600073ffffffffffffffffffffffffffffffffffffffff168273ffffffffffffffffffffffffffffffffffffffff161415611362576040517f08c379a0000000000000000000000000000000000000000000000000000000008152600401611359906127a3565b60405180910390fd5b61136d8383836117dc565b6113786000826110e5565b6001600360008573ffffffffffffffffffffffffffffffffffffffff1673ffffffffffffffffffffffffffffffffffffffff16815260200190815260200160002060008282546113c89190612aa4565b925050819055506001600360008473ffffffffffffffffffffffffffffffffffffffff1673ffffffffffffffffffffffffffffffffffffffff168152602001908152602001600020600082825461141f9190612a1d565b92505081905550816002600083815260200190815260200160002060006101000a81548173ffffffffffffffffffffffffffffffffffffffff021916908373ffffffffffffffffffffffffffffffffffffffff160217905550808273ffffffffffffffffffffffffffffffffffffffff168473ffffffffffffffffffffffffffffffffffffffff167fddf252ad1be2c89b69c2b068fc378daa952ba7f163c4a11628f55a4df523b3ef60405160405180910390a4505050565b6000600660009054906101000a900473ffffffffffffffffffffffffffffffffffffffff16905081600660006101000a81548173ffffffffffffffffffffffffffffffffffffffff021916908373ffffffffffffffffffffffffffffffffffffffff1602179055508173ffffffffffffffffffffffffffffffffffffffff168173ffffffffffffffffffffffffffffffffffffffff167f8be0079c531659141344cd1fd0a4f28419497f9722a3daafe3b4186f6b6457e060405160405180910390a35050565b6115a984848461127c565b6115b584848484611818565b6115f4576040517f08c379a00000000000000000000000000000000000000000000000000000000081526004016115eb90612743565b60405180910390fd5b50505050565b606060405180602001604052806000815250905090565b60606000821415611659576040518060400160405280600181526020017f300000000000000000000000000000000000000000000000000000000000000081525090506117b9565b600082905060005b6000821461168b57808061167490612bcd565b915050600a826116849190612a73565b9150611661565b60008167ffffffffffffffff8111156116cd577f4e487b7100000000000000000000000000000000000000000000000000000000600052604160045260246000fd5b6040519080825280601f01601f1916602001820160405280156116ff5781602001600182028036833780820191505090505b5090505b600085146117b2576001826117189190612aa4565b9150600a856117279190612c16565b60306117339190612a1d565b60f81b81838151811061176f577f4e487b7100000000000000000000000000000000000000000000000000000000600052603260045260246000fd5b60200101907effffffffffffffffffffffffffffffffffffffffffffffffffffffffffffff1916908160001a905350600a856117ab9190612a73565b9450611703565b8093505050505b919050565b6117d88282604051806020016040528060008152506119af565b5050565b6000600860008381526020019081526020016000209050806002015481600101546118079190612a1d565b421061181257600080fd5b50505050565b60006118398473ffffffffffffffffffffffffffffffffffffffff16611a0a565b156119a2578373ffffffffffffffffffffffffffffffffffffffff1663150b7a026118626110dd565b8786866040518563ffffffff1660e01b815260040161188494939291906126ba565b602060405180830381600087803b15801561189e57600080fd5b505af19250505080156118cf57506040513d601f19601f820116820180604052508101906118cc9190611ecf565b60015b611952573d80600081146118ff576040519150601f19603f3d011682016040523d82523d6000602084013e611904565b606091505b5060008151141561194a576040517f08c379a000000000000000000000000000000000000000000000000000000000815260040161194190612743565b60405180910390fd5b805181602001fd5b63150b7a0260e01b7bffffffffffffffffffffffffffffffffffffffffffffffffffffffff1916817bffffffffffffffffffffffffffffffffffffffffffffffffffffffff1916149150506119a7565b600190505b949350505050565b6119b98383611a1d565b6119c66000848484611818565b611a05576040517f08c379a00000000000000000000000000000000000000000000000000000000081526004016119fc90612743565b60405180910390fd5b505050565b600080823b905060008111915050919050565b600073ffffffffffffffffffffffffffffffffffffffff168273ffffffffffffffffffffffffffffffffffffffff161415611a8d576040517f08c379a0000000000000000000000000000000000000000000000000000000008152600401611a8490612863565b60405180910390fd5b611a9681611071565b15611ad6576040517f08c379a0000000000000000000000000000000000000000000000000000000008152600401611acd90612783565b60405180910390fd5b611ae2600083836117dc565b6001600360008473ffffffffffffffffffffffffffffffffffffffff1673ffffffffffffffffffffffffffffffffffffffff1681526020019081526020016000206000828254611b329190612a1d565b92505081905550816002600083815260200190815260200160002060006101000a81548173ffffffffffffffffffffffffffffffffffffffff021916908373ffffffffffffffffffffffffffffffffffffffff160217905550808273ffffffffffffffffffffffffffffffffffffffff16600073ffffffffffffffffffffffffffffffffffffffff167fddf252ad1be2c89b69c2b068fc378daa952ba7f163c4a11628f55a4df523b3ef60405160405180910390a45050565b6040518060800160405280600060ff168152602001600060ff16815260200160008152602001600081525090565b6000611c2c611c27846129aa565b612979565b905082815260208101848484011115611c4457600080fd5b611c4f848285612b59565b509392505050565b600081359050611c6681612d14565b92915050565b600081359050611c7b81612d2b565b92915050565b600081359050611c9081612d42565b92915050565b600081519050611ca581612d42565b92915050565b600082601f830112611cbc57600080fd5b8135611ccc848260208601611c19565b91505092915050565b600081359050611ce481612d59565b92915050565b600081359050611cf981612d70565b92915050565b600060208284031215611d1157600080fd5b6000611d1f84828501611c57565b91505092915050565b60008060408385031215611d3b57600080fd5b6000611d4985828601611c57565b9250506020611d5a85828601611c57565b9150509250929050565b600080600060608486031215611d7957600080fd5b6000611d8786828701611c57565b9350506020611d9886828701611c57565b9250506040611da986828701611cd5565b9150509250925092565b60008060008060808587031215611dc957600080fd5b6000611dd787828801611c57565b9450506020611de887828801611c57565b9350506040611df987828801611cd5565b925050606085013567ffffffffffffffff811115611e1657600080fd5b611e2287828801611cab565b91505092959194509250565b60008060408385031215611e4157600080fd5b6000611e4f85828601611c57565b9250506020611e6085828601611c6c565b9150509250929050565b60008060408385031215611e7d57600080fd5b6000611e8b85828601611c57565b9250506020611e9c85828601611cd5565b9150509250929050565b600060208284031215611eb857600080fd5b6000611ec684828501611c81565b91505092915050565b600060208284031215611ee157600080fd5b6000611eef84828501611c96565b91505092915050565b600060208284031215611f0a57600080fd5b6000611f1884828501611cd5565b91505092915050565b600080600060608486031215611f3657600080fd5b6000611f4486828701611cea565b9350506020611f5586828701611cea565b9250506040611f6686828701611cd5565b9150509250925092565b611f7981612ad8565b82525050565b611f8881612aea565b82525050565b6000611f99826129da565b611fa381856129f0565b9350611fb3818560208601612b68565b611fbc81612d03565b840191505092915050565b6000611fd2826129e5565b611fdc8185612a01565b9350611fec818560208601612b68565b611ff581612d03565b840191505092915050565b600061200b826129e5565b6120158185612a12565b9350612025818560208601612b68565b80840191505092915050565b600061203e603283612a01565b91507f4552433732313a207472616e7366657220746f206e6f6e20455243373231526560008301527f63656976657220696d706c656d656e74657200000000000000000000000000006020830152604082019050919050565b60006120a4602683612a01565b91507f4f776e61626c653a206e6577206f776e657220697320746865207a65726f206160008301527f64647265737300000000000000000000000000000000000000000000000000006020830152604082019050919050565b600061210a601c83612a01565b91507f4552433732313a20746f6b656e20616c7265616479206d696e746564000000006000830152602082019050919050565b600061214a602483612a01565b91507f4552433732313a207472616e7366657220746f20746865207a65726f2061646460008301527f72657373000000000000000000000000000000000000000000000000000000006020830152604082019050919050565b60006121b0601983612a01565b91507f4552433732313a20617070726f766520746f2063616c6c6572000000000000006000830152602082019050919050565b60006121f0602c83612a01565b91507f4552433732313a206f70657261746f7220717565727920666f72206e6f6e657860008301527f697374656e7420746f6b656e00000000000000000000000000000000000000006020830152604082019050919050565b6000612256603883612a01565b91507f4552433732313a20617070726f76652063616c6c6572206973206e6f74206f7760008301527f6e6572206e6f7220617070726f76656420666f7220616c6c00000000000000006020830152604082019050919050565b60006122bc602a83612a01565b91507f4552433732313a2062616c616e636520717565727920666f7220746865207a6560008301527f726f2061646472657373000000000000000000000000000000000000000000006020830152604082019050919050565b6000612322602983612a01565b91507f4552433732313a206f776e657220717565727920666f72206e6f6e657869737460008301527f656e7420746f6b656e00000000000000000000000000000000000000000000006020830152604082019050919050565b6000612388602083612a01565b91507f4552433732313a206d696e7420746f20746865207a65726f20616464726573736000830152602082019050919050565b60006123c8602c83612a01565b91507f4552433732313a20617070726f76656420717565727920666f72206e6f6e657860008301527f697374656e7420746f6b656e00000000000000000000000000000000000000006020830152604082019050919050565b600061242e602083612a01565b91507f4f776e61626c653a2063616c6c6572206973206e6f7420746865206f776e65726000830152602082019050919050565b600061246e602983612a01565b91507f4552433732313a207472616e73666572206f6620746f6b656e2074686174206960008301527f73206e6f74206f776e00000000000000000000000000000000000000000000006020830152604082019050919050565b60006124d4602f83612a01565b91507f4552433732314d657461646174613a2055524920717565727920666f72206e6f60008301527f6e6578697374656e7420746f6b656e00000000000000000000000000000000006020830152604082019050919050565b600061253a602183612a01565b91507f4552433732313a20617070726f76616c20746f2063757272656e74206f776e6560008301527f72000000000000000000000000000000000000000000000000000000000000006020830152604082019050919050565b60006125a0603183612a01565b91507f4552433732313a207472616e736665722063616c6c6572206973206e6f74206f60008301527f776e6572206e6f7220617070726f7665640000000000000000000000000000006020830152604082019050919050565b60808201600082015161260f600085018261266c565b506020820151612622602085018261266c565b506040820151612635604085018261264e565b506060820151612648606085018261264e565b50505050565b61265781612b42565b82525050565b61266681612b42565b82525050565b61267581612b4c565b82525050565b60006126878285612000565b91506126938284612000565b91508190509392505050565b60006020820190506126b46000830184611f70565b92915050565b60006080820190506126cf6000830187611f70565b6126dc6020830186611f70565b6126e9604083018561265d565b81810360608301526126fb8184611f8e565b905095945050505050565b600060208201905061271b6000830184611f7f565b92915050565b6000602082019050818103600083015261273b8184611fc7565b905092915050565b6000602082019050818103600083015261275c81612031565b9050919050565b6000602082019050818103600083015261277c81612097565b9050919050565b6000602082019050818103600083015261279c816120fd565b9050919050565b600060208201905081810360008301526127bc8161213d565b9050919050565b600060208201905081810360008301526127dc816121a3565b9050919050565b600060208201905081810360008301526127fc816121e3565b9050919050565b6000602082019050818103600083015261281c81612249565b9050919050565b6000602082019050818103600083015261283c816122af565b9050919050565b6000602082019050818103600083015261285c81612315565b9050919050565b6000602082019050818103600083015261287c8161237b565b9050919050565b6000602082019050818103600083015261289c816123bb565b9050919050565b600060208201905081810360008301526128bc81612421565b9050919050565b600060208201905081810360008301526128dc81612461565b9050919050565b600060208201905081810360008301526128fc816124c7565b9050919050565b6000602082019050818103600083015261291c8161252d565b9050919050565b6000602082019050818103600083015261293c81612593565b9050919050565b600060808201905061295860008301846125f9565b92915050565b6000602082019050612973600083018461265d565b92915050565b6000604051905081810181811067ffffffffffffffff821117156129a05761299f612cd4565b5b8060405250919050565b600067ffffffffffffffff8211156129c5576129c4612cd4565b5b601f19601f8301169050602081019050919050565b600081519050919050565b600081519050919050565b600082825260208201905092915050565b600082825260208201905092915050565b600081905092915050565b6000612a2882612b42565b9150612a3383612b42565b9250827fffffffffffffffffffffffffffffffffffffffffffffffffffffffffffffffff03821115612a6857612a67612c47565b5b828201905092915050565b6000612a7e82612b42565b9150612a8983612b42565b925082612a9957612a98612c76565b5b828204905092915050565b6000612aaf82612b42565b9150612aba83612b42565b925082821015612acd57612acc612c47565b5b828203905092915050565b6000612ae382612b22565b9050919050565b60008115159050919050565b60007fffffffff0000000000000000000000000000000000000000000000000000000082169050919050565b600073ffffffffffffffffffffffffffffffffffffffff82169050919050565b6000819050919050565b600060ff82169050919050565b82818337600083830152505050565b60005b83811015612b86578082015181840152602081019050612b6b565b83811115612b95576000848401525b50505050565b60006002820490506001821680612bb357607f821691505b60208210811415612bc757612bc6612ca5565b5b50919050565b6000612bd882612b42565b91507fffffffffffffffffffffffffffffffffffffffffffffffffffffffffffffffff821415612c0b57612c0a612c47565b5b600182019050919050565b6000612c2182612b42565b9150612c2c83612b42565b925082612c3c57612c3b612c76565b5b828206905092915050565b7f4e487b7100000000000000000000000000000000000000000000000000000000600052601160045260246000fd5b7f4e487b7100000000000000000000000000000000000000000000000000000000600052601260045260246000fd5b7f4e487b7100000000000000000000000000000000000000000000000000000000600052602260045260246000fd5b7f4e487b7100000000000000000000000000000000000000000000000000000000600052604160045260246000fd5b6000601f19601f8301169050919050565b612d1d81612ad8565b8114612d2857600080fd5b50565b612d3481612aea565b8114612d3f57600080fd5b50565b612d4b81612af6565b8114612d5657600080fd5b50565b612d6281612b42565b8114612d6d57600080fd5b50565b612d7981612b4c565b8114612d8457600080fd5b5056fea2646970667358221220654acaf9b013320934e4cb480c81e53fc27de6c976b9cbb8647cefa8b43aeb7464736f6c63430008000033",
  "immutableReferences": {},
  "source": "// SPDX-License-Identifier: GPL-3.0\npragma solidity ^0.8.0;\n\nimport \"../node_modules/@openzeppelin/contracts/token/ERC721/ERC721.sol\";\nimport \"../node_modules/@openzeppelin/contracts/access/Ownable.sol\";\n\ncontract NFT_Token is ERC721, Ownable {\n  uint256 nextId = 0;\n\n  struct Pet {\n    uint8 damage;\n    uint8 magic;\n    uint256 lastMeal;\n    uint256 endurance;\n  }\n\n  mapping(uint256 => Pet) private _tokenDetails;\n\n  constructor(string memory name, string memory symbol) ERC721(name, symbol) {}\n\n  function getTokenDetails(uint256 tokenId) public view returns (Pet memory) {\n    return _tokenDetails[tokenId];\n  }\n\n  function mint(\n    uint8 _damage,\n    uint8 _magic,\n    uint256 _endurance\n  ) public onlyOwner {\n    _tokenDetails[nextId] = Pet(_damage, _magic, block.timestamp, _endurance);\n    _safeMint(msg.sender, nextId);\n    nextId++;\n  }\n\n  function feed(uint256 tokenId) public {\n    Pet storage pet = _tokenDetails[tokenId];\n    require(block.timestamp < pet.lastMeal + pet.endurance);\n    pet.lastMeal = block.timestamp;\n  }\n\n  function _beforeTokenTransfer(\n    address from,\n    address to,\n    uint256 tokenId\n  ) internal override {\n    Pet storage pet = _tokenDetails[tokenId];\n    require(block.timestamp < pet.lastMeal + pet.endurance); // Pet is still alive\n  }\n}\n",
  "sourcePath": "/home/cores1369/nft_game/contracts/NFT_Token.sol",
  "compiler": {
    "name": "solc",
    "version": "0.8.0+commit.c7dfd78e.Emscripten.clang"
  },
  "schemaVersion": "3.4.3",
  "updatedAt": "2021-10-28T11:05:37.535Z",
  "networkType": "ethereum",
  "devdoc": {
    "kind": "dev",
    "methods": {
      "approve(address,uint256)": {
        "details": "See {IERC721-approve}."
      },
      "balanceOf(address)": {
        "details": "See {IERC721-balanceOf}."
      },
      "getApproved(uint256)": {
        "details": "See {IERC721-getApproved}."
      },
      "isApprovedForAll(address,address)": {
        "details": "See {IERC721-isApprovedForAll}."
      },
      "name()": {
        "details": "See {IERC721Metadata-name}."
      },
      "owner()": {
        "details": "Returns the address of the current owner."
      },
      "ownerOf(uint256)": {
        "details": "See {IERC721-ownerOf}."
      },
      "renounceOwnership()": {
        "details": "Leaves the contract without owner. It will not be possible to call `onlyOwner` functions anymore. Can only be called by the current owner. NOTE: Renouncing ownership will leave the contract without an owner, thereby removing any functionality that is only available to the owner."
      },
      "safeTransferFrom(address,address,uint256)": {
        "details": "See {IERC721-safeTransferFrom}."
      },
      "safeTransferFrom(address,address,uint256,bytes)": {
        "details": "See {IERC721-safeTransferFrom}."
      },
      "setApprovalForAll(address,bool)": {
        "details": "See {IERC721-setApprovalForAll}."
      },
      "supportsInterface(bytes4)": {
        "details": "See {IERC165-supportsInterface}."
      },
      "symbol()": {
        "details": "See {IERC721Metadata-symbol}."
      },
      "tokenURI(uint256)": {
        "details": "See {IERC721Metadata-tokenURI}."
      },
      "transferFrom(address,address,uint256)": {
        "details": "See {IERC721-transferFrom}."
      },
      "transferOwnership(address)": {
        "details": "Transfers ownership of the contract to a new account (`newOwner`). Can only be called by the current owner."
      }
    },
    "version": 1
  },
  "userdoc": {
    "kind": "user",
    "methods": {},
    "version": 1
  }
}