{
  "contractName": "NFT_Contract",
  "abi": [
    {
      "inputs": [],
      "stateMutability": "nonpayable",
      "type": "constructor"
    },
    {
      "anonymous": false,
      "inputs": [
        {
          "indexed": true,
          "internalType": "address",
          "name": "account",
          "type": "address"
        },
        {
          "indexed": true,
          "internalType": "address",
          "name": "operator",
          "type": "address"
        },
        {
          "indexed": false,
          "internalType": "bool",
          "name": "approved",
          "type": "bool"
        }
      ],
      "name": "ApprovalForAll",
      "type": "event"
    },
    {
      "anonymous": false,
      "inputs": [
        {
          "indexed": true,
          "internalType": "address",
          "name": "previousOwner",
          "type": "address"
        },
        {
          "indexed": true,
          "internalType": "address",
          "name": "newOwner",
          "type": "address"
        }
      ],
      "name": "OwnershipTransferred",
      "type": "event"
    },
    {
      "anonymous": false,
      "inputs": [
        {
          "indexed": true,
          "internalType": "address",
          "name": "operator",
          "type": "address"
        },
        {
          "indexed": true,
          "internalType": "address",
          "name": "from",
          "type": "address"
        },
        {
          "indexed": true,
          "internalType": "address",
          "name": "to",
          "type": "address"
        },
        {
          "indexed": false,
          "internalType": "uint256[]",
          "name": "ids",
          "type": "uint256[]"
        },
        {
          "indexed": false,
          "internalType": "uint256[]",
          "name": "values",
          "type": "uint256[]"
        }
      ],
      "name": "TransferBatch",
      "type": "event"
    },
    {
      "anonymous": false,
      "inputs": [
        {
          "indexed": true,
          "internalType": "address",
          "name": "operator",
          "type": "address"
        },
        {
          "indexed": true,
          "internalType": "address",
          "name": "from",
          "type": "address"
        },
        {
          "indexed": true,
          "internalType": "address",
          "name": "to",
          "type": "address"
        },
        {
          "indexed": false,
          "internalType": "uint256",
          "name": "id",
          "type": "uint256"
        },
        {
          "indexed": false,
          "internalType": "uint256",
          "name": "value",
          "type": "uint256"
        }
      ],
      "name": "TransferSingle",
      "type": "event"
    },
    {
      "anonymous": false,
      "inputs": [
        {
          "indexed": false,
          "internalType": "string",
          "name": "value",
          "type": "string"
        },
        {
          "indexed": true,
          "internalType": "uint256",
          "name": "id",
          "type": "uint256"
        }
      ],
      "name": "URI",
      "type": "event"
    },
    {
      "inputs": [],
      "name": "ARTWORK",
      "outputs": [
        {
          "internalType": "uint256",
          "name": "",
          "type": "uint256"
        }
      ],
      "stateMutability": "view",
      "type": "function"
    },
    {
      "inputs": [],
      "name": "PHOTO",
      "outputs": [
        {
          "internalType": "uint256",
          "name": "",
          "type": "uint256"
        }
      ],
      "stateMutability": "view",
      "type": "function"
    },
    {
      "inputs": [
        {
          "internalType": "address",
          "name": "account",
          "type": "address"
        },
        {
          "internalType": "uint256",
          "name": "id",
          "type": "uint256"
        }
      ],
      "name": "balanceOf",
      "outputs": [
        {
          "internalType": "uint256",
          "name": "",
          "type": "uint256"
        }
      ],
      "stateMutability": "view",
      "type": "function"
    },
    {
      "inputs": [
        {
          "internalType": "address[]",
          "name": "accounts",
          "type": "address[]"
        },
        {
          "internalType": "uint256[]",
          "name": "ids",
          "type": "uint256[]"
        }
      ],
      "name": "balanceOfBatch",
      "outputs": [
        {
          "internalType": "uint256[]",
          "name": "",
          "type": "uint256[]"
        }
      ],
      "stateMutability": "view",
      "type": "function"
    },
    {
      "inputs": [
        {
          "internalType": "address",
          "name": "account",
          "type": "address"
        },
        {
          "internalType": "address",
          "name": "operator",
          "type": "address"
        }
      ],
      "name": "isApprovedForAll",
      "outputs": [
        {
          "internalType": "bool",
          "name": "",
          "type": "bool"
        }
      ],
      "stateMutability": "view",
      "type": "function"
    },
    {
      "inputs": [],
      "name": "owner",
      "outputs": [
        {
          "internalType": "address",
          "name": "",
          "type": "address"
        }
      ],
      "stateMutability": "view",
      "type": "function"
    },
    {
      "inputs": [],
      "name": "renounceOwnership",
      "outputs": [],
      "stateMutability": "nonpayable",
      "type": "function"
    },
    {
      "inputs": [
        {
          "internalType": "address",
          "name": "from",
          "type": "address"
        },
        {
          "internalType": "address",
          "name": "to",
          "type": "address"
        },
        {
          "internalType": "uint256[]",
          "name": "ids",
          "type": "uint256[]"
        },
        {
          "internalType": "uint256[]",
          "name": "amounts",
          "type": "uint256[]"
        },
        {
          "internalType": "bytes",
          "name": "data",
          "type": "bytes"
        }
      ],
      "name": "safeBatchTransferFrom",
      "outputs": [],
      "stateMutability": "nonpayable",
      "type": "function"
    },
    {
      "inputs": [
        {
          "internalType": "address",
          "name": "from",
          "type": "address"
        },
        {
          "internalType": "address",
          "name": "to",
          "type": "address"
        },
        {
          "internalType": "uint256",
          "name": "id",
          "type": "uint256"
        },
        {
          "internalType": "uint256",
          "name": "amount",
          "type": "uint256"
        },
        {
          "internalType": "bytes",
          "name": "data",
          "type": "bytes"
        }
      ],
      "name": "safeTransferFrom",
      "outputs": [],
      "stateMutability": "nonpayable",
      "type": "function"
    },
    {
      "inputs": [
        {
          "internalType": "address",
          "name": "operator",
          "type": "address"
        },
        {
          "internalType": "bool",
          "name": "approved",
          "type": "bool"
        }
      ],
      "name": "setApprovalForAll",
      "outputs": [],
      "stateMutability": "nonpayable",
      "type": "function"
    },
    {
      "inputs": [
        {
          "internalType": "bytes4",
          "name": "interfaceId",
          "type": "bytes4"
        }
      ],
      "name": "supportsInterface",
      "outputs": [
        {
          "internalType": "bool",
          "name": "",
          "type": "bool"
        }
      ],
      "stateMutability": "view",
      "type": "function"
    },
    {
      "inputs": [
        {
          "internalType": "address",
          "name": "newOwner",
          "type": "address"
        }
      ],
      "name": "transferOwnership",
      "outputs": [],
      "stateMutability": "nonpayable",
      "type": "function"
    },
    {
      "inputs": [
        {
          "internalType": "uint256",
          "name": "",
          "type": "uint256"
        }
      ],
      "name": "uri",
      "outputs": [
        {
          "internalType": "string",
          "name": "",
          "type": "string"
        }
      ],
      "stateMutability": "view",
      "type": "function"
    },
    {
      "inputs": [
        {
          "internalType": "uint256",
          "name": "tokenId",
          "type": "uint256"
        }
      ],
      "name": "getTokenDetails",
      "outputs": [
        {
          "components": [
            {
              "internalType": "uint8",
              "name": "damage",
              "type": "uint8"
            },
            {
              "internalType": "uint8",
              "name": "magic",
              "type": "uint8"
            },
            {
              "internalType": "uint256",
              "name": "lastMeal",
              "type": "uint256"
            },
            {
              "internalType": "uint256",
              "name": "endurance",
              "type": "uint256"
            }
          ],
          "internalType": "struct NFT_Contract.Pet",
          "name": "",
          "type": "tuple"
        }
      ],
      "stateMutability": "view",
      "type": "function"
    },
    {
      "inputs": [
        {
          "internalType": "address",
          "name": "account",
          "type": "address"
        },
        {
          "internalType": "uint8",
          "name": "_damage",
          "type": "uint8"
        },
        {
          "internalType": "uint8",
          "name": "_magic",
          "type": "uint8"
        },
        {
          "internalType": "uint256",
          "name": "_endurance",
          "type": "uint256"
        }
      ],
      "name": "mint",
      "outputs": [],
      "stateMutability": "nonpayable",
      "type": "function"
    },
    {
      "inputs": [
        {
          "internalType": "uint256",
          "name": "tokenId",
          "type": "uint256"
        }
      ],
      "name": "feed",
      "outputs": [],
      "stateMutability": "nonpayable",
      "type": "function"
    },
    {
      "inputs": [
        {
          "internalType": "address",
          "name": "account",
          "type": "address"
        },
        {
          "internalType": "uint256",
          "name": "id",
          "type": "uint256"
        },
        {
          "internalType": "uint256",
          "name": "amount",
          "type": "uint256"
        }
      ],
      "name": "burn",
      "outputs": [],
      "stateMutability": "nonpayable",
      "type": "function"
    }
  ],
  "bytecode": "0x608060405260006004553480156200001657600080fd5b506040518060600160405280602d8152602001620040c2602d91396200004281620000b360201b60201c565b506200006362000057620000cf60201b60201c565b620000d760201b60201c565b620000883360006001604051806020016040528060008152506200019d60201b60201c565b620000ad3360016002604051806020016040528060008152506200019d60201b60201c565b62000ce5565b8060029080519060200190620000cb92919062000636565b5050565b600033905090565b6000600360009054906101000a900473ffffffffffffffffffffffffffffffffffffffff16905081600360006101000a81548173ffffffffffffffffffffffffffffffffffffffff021916908373ffffffffffffffffffffffffffffffffffffffff1602179055508173ffffffffffffffffffffffffffffffffffffffff168173ffffffffffffffffffffffffffffffffffffffff167f8be0079c531659141344cd1fd0a4f28419497f9722a3daafe3b4186f6b6457e060405160405180910390a35050565b600073ffffffffffffffffffffffffffffffffffffffff168473ffffffffffffffffffffffffffffffffffffffff16141562000210576040517f08c379a00000000000000000000000000000000000000000000000000000000081526004016200020790620009d1565b60405180910390fd5b600062000222620000cf60201b60201c565b90506200025b816000876200023d886200036260201b60201c565b6200024e886200036260201b60201c565b876200042b60201b60201c565b8260008086815260200190815260200160002060008773ffffffffffffffffffffffffffffffffffffffff1673ffffffffffffffffffffffffffffffffffffffff1681526020019081526020016000206000828254620002bc919062000a58565b925050819055508473ffffffffffffffffffffffffffffffffffffffff16600073ffffffffffffffffffffffffffffffffffffffff168273ffffffffffffffffffffffffffffffffffffffff167fc3d58168c5ae7397731d063d5bbf3d657854427343f4c083240f7aacaa2d0f6287876040516200033c929190620009f3565b60405180910390a46200035b816000878787876200043360201b60201c565b5050505050565b60606000600167ffffffffffffffff811115620003a8577f4e487b7100000000000000000000000000000000000000000000000000000000600052604160045260246000fd5b604051908082528060200260200182016040528015620003d75781602001602082028036833780820191505090505b509050828160008151811062000416577f4e487b7100000000000000000000000000000000000000000000000000000000600052603260045260246000fd5b60200260200101818152505080915050919050565b505050505050565b6200045f8473ffffffffffffffffffffffffffffffffffffffff166200062360201b62000ea51760201c565b156200061b578373ffffffffffffffffffffffffffffffffffffffff1663f23a6e6187878686866040518663ffffffff1660e01b8152600401620004a895949392919062000905565b602060405180830381600087803b158015620004c357600080fd5b505af1925050508015620004f757506040513d601f19601f82011682018060405250810190620004f49190620006fd565b60015b6200058f576200050662000c07565b8062000513575062000552565b806040517f08c379a000000000000000000000000000000000000000000000000000000000815260040162000549919062000969565b60405180910390fd5b6040517f08c379a000000000000000000000000000000000000000000000000000000000815260040162000586906200098d565b60405180910390fd5b63f23a6e6160e01b7bffffffffffffffffffffffffffffffffffffffffffffffffffffffff1916817bffffffffffffffffffffffffffffffffffffffffffffffffffffffff19161462000619576040517f08c379a00000000000000000000000000000000000000000000000000000000081526004016200061090620009af565b60405180910390fd5b505b505050505050565b600080823b905060008111915050919050565b828054620006449062000b55565b90600052602060002090601f016020900481019282620006685760008555620006b4565b82601f106200068357805160ff1916838001178555620006b4565b82800160010185558215620006b4579182015b82811115620006b357825182559160200191906001019062000696565b5b509050620006c39190620006c7565b5090565b5b80821115620006e2576000816000905550600101620006c8565b5090565b600081519050620006f78162000ccb565b92915050565b6000602082840312156200071057600080fd5b60006200072084828501620006e6565b91505092915050565b620007348162000ab5565b82525050565b6000620007478262000a20565b62000753818562000a36565b93506200076581856020860162000b1f565b620007708162000be9565b840191505092915050565b6000620007888262000a2b565b62000794818562000a47565b9350620007a681856020860162000b1f565b620007b18162000be9565b840191505092915050565b6000620007cb60348362000a47565b91507f455243313135353a207472616e7366657220746f206e6f6e204552433131353560008301527f526563656976657220696d706c656d656e7465720000000000000000000000006020830152604082019050919050565b60006200083360288362000a47565b91507f455243313135353a204552433131353552656365697665722072656a6563746560008301527f6420746f6b656e730000000000000000000000000000000000000000000000006020830152604082019050919050565b60006200089b60218362000a47565b91507f455243313135353a206d696e7420746f20746865207a65726f2061646472657360008301527f73000000000000000000000000000000000000000000000000000000000000006020830152604082019050919050565b620008ff8162000b15565b82525050565b600060a0820190506200091c600083018862000729565b6200092b602083018762000729565b6200093a6040830186620008f4565b620009496060830185620008f4565b81810360808301526200095d81846200073a565b90509695505050505050565b600060208201905081810360008301526200098581846200077b565b905092915050565b60006020820190508181036000830152620009a881620007bc565b9050919050565b60006020820190508181036000830152620009ca8162000824565b9050919050565b60006020820190508181036000830152620009ec816200088c565b9050919050565b600060408201905062000a0a6000830185620008f4565b62000a196020830184620008f4565b9392505050565b600081519050919050565b600081519050919050565b600082825260208201905092915050565b600082825260208201905092915050565b600062000a658262000b15565b915062000a728362000b15565b9250827fffffffffffffffffffffffffffffffffffffffffffffffffffffffffffffffff0382111562000aaa5762000aa962000b8b565b5b828201905092915050565b600062000ac28262000af5565b9050919050565b60007fffffffff0000000000000000000000000000000000000000000000000000000082169050919050565b600073ffffffffffffffffffffffffffffffffffffffff82169050919050565b6000819050919050565b60005b8381101562000b3f57808201518184015260208101905062000b22565b8381111562000b4f576000848401525b50505050565b6000600282049050600182168062000b6e57607f821691505b6020821081141562000b855762000b8462000bba565b5b50919050565b7f4e487b7100000000000000000000000000000000000000000000000000000000600052601160045260246000fd5b7f4e487b7100000000000000000000000000000000000000000000000000000000600052602260045260246000fd5b6000601f19601f8301169050919050565b60008160e01c9050919050565b600060443d101562000c195762000cc8565b60046000803e62000c2c60005162000bfa565b6308c379a0811462000c3f575062000cc8565b60405160043d036004823e80513d602482011167ffffffffffffffff8211171562000c6d5750505062000cc8565b808201805167ffffffffffffffff81111562000c8e57505050505062000cc8565b8060208301013d850181111562000cab5750505050505062000cc8565b62000cb68262000be9565b60208401016040528296505050505050505b90565b62000cd68162000ac9565b811462000ce257600080fd5b50565b6133cd8062000cf56000396000f3fe608060405234801561001057600080fd5b506004361061010a5760003560e01c80638da5cb5b116100a2578063e985e9c511610071578063e985e9c5146102b7578063f242432a146102e7578063f2fde38b14610303578063f5298aca1461031f578063f59dfdfb1461033b5761010a565b80638da5cb5b1461022f578063a22cb4651461024d578063c1e0372814610269578063d016c554146102995761010a565b806328fc3478116100de57806328fc3478146101bd5780632eb2c2d6146101d95780634e1273f4146101f5578063715018a6146102255761010a565b8062fdd58e1461010f57806301ffc9a71461013f5780630e89341c1461016f57806320f708b91461019f575b600080fd5b61012960048036038101906101249190612222565b610357565b6040516101369190612ec1565b60405180910390f35b6101596004803603810190610154919061237c565b610420565b6040516101669190612c89565b60405180910390f35b610189600480360381019061018491906123ce565b610502565b6040516101969190612ca4565b60405180910390f35b6101a7610596565b6040516101b49190612ec1565b60405180910390f35b6101d760048036038101906101d291906122ad565b61059b565b005b6101f360048036038101906101ee9190612098565b6106e8565b005b61020f600480360381019061020a9190612310565b610789565b60405161021c9190612c30565b60405180910390f35b61022d61093a565b005b6102376109c2565b6040516102449190612b53565b60405180910390f35b610267600480360381019061026291906121e6565b6109ec565b005b610283600480360381019061027e91906123ce565b610b6d565b6040516102909190612ea6565b60405180910390f35b6102a1610be8565b6040516102ae9190612ec1565b60405180910390f35b6102d160048036038101906102cc919061205c565b610bed565b6040516102de9190612c89565b60405180910390f35b61030160048036038101906102fc9190612157565b610c81565b005b61031d60048036038101906103189190612033565b610d22565b005b6103396004803603810190610334919061225e565b610e1a565b005b610355600480360381019061035091906123ce565b610e62565b005b60008073ffffffffffffffffffffffffffffffffffffffff168373ffffffffffffffffffffffffffffffffffffffff1614156103c8576040517f08c379a00000000000000000000000000000000000000000000000000000000081526004016103bf90612d06565b60405180910390fd5b60008083815260200190815260200160002060008473ffffffffffffffffffffffffffffffffffffffff1673ffffffffffffffffffffffffffffffffffffffff16815260200190815260200160002054905092915050565b60007fd9b67a26000000000000000000000000000000000000000000000000000000007bffffffffffffffffffffffffffffffffffffffffffffffffffffffff1916827bffffffffffffffffffffffffffffffffffffffffffffffffffffffff191614806104eb57507f0e89341c000000000000000000000000000000000000000000000000000000007bffffffffffffffffffffffffffffffffffffffffffffffffffffffff1916827bffffffffffffffffffffffffffffffffffffffffffffffffffffffff1916145b806104fb57506104fa82610eb8565b5b9050919050565b60606002805461051190613148565b80601f016020809104026020016040519081016040528092919081815260200182805461053d90613148565b801561058a5780601f1061055f5761010080835404028352916020019161058a565b820191906000526020600020905b81548152906001019060200180831161056d57829003601f168201915b50505050509050919050565b600181565b6105a3610f22565b73ffffffffffffffffffffffffffffffffffffffff166105c16109c2565b73ffffffffffffffffffffffffffffffffffffffff1614610617576040517f08c379a000000000000000000000000000000000000000000000000000000000815260040161060e90612e06565b60405180910390fd5b60405180608001604052808460ff1681526020018360ff1681526020014281526020018281525060056000600454815260200190815260200160002060008201518160000160006101000a81548160ff021916908360ff16021790555060208201518160000160016101000a81548160ff021916908360ff16021790555060408201518160010155606082015181600201559050506106ca84600454600160405180602001604052806000815250610f2a565b600460008154809291906106dd9061317a565b919050555050505050565b6106f0610f22565b73ffffffffffffffffffffffffffffffffffffffff168573ffffffffffffffffffffffffffffffffffffffff161480610736575061073585610730610f22565b610bed565b5b610775576040517f08c379a000000000000000000000000000000000000000000000000000000000815260040161076c90612da6565b60405180910390fd5b61078285858585856110c0565b5050505050565b606081518351146107cf576040517f08c379a00000000000000000000000000000000000000000000000000000000081526004016107c690612e46565b60405180910390fd5b6000835167ffffffffffffffff811115610812577f4e487b7100000000000000000000000000000000000000000000000000000000600052604160045260246000fd5b6040519080825280602002602001820160405280156108405781602001602082028036833780820191505090505b50905060005b845181101561092f576108d985828151811061088b577f4e487b7100000000000000000000000000000000000000000000000000000000600052603260045260246000fd5b60200260200101518583815181106108cc577f4e487b7100000000000000000000000000000000000000000000000000000000600052603260045260246000fd5b6020026020010151610357565b828281518110610912577f4e487b7100000000000000000000000000000000000000000000000000000000600052603260045260246000fd5b602002602001018181525050806109289061317a565b9050610846565b508091505092915050565b610942610f22565b73ffffffffffffffffffffffffffffffffffffffff166109606109c2565b73ffffffffffffffffffffffffffffffffffffffff16146109b6576040517f08c379a00000000000000000000000000000000000000000000000000000000081526004016109ad90612e06565b60405180910390fd5b6109c06000611420565b565b6000600360009054906101000a900473ffffffffffffffffffffffffffffffffffffffff16905090565b8173ffffffffffffffffffffffffffffffffffffffff16610a0b610f22565b73ffffffffffffffffffffffffffffffffffffffff161415610a62576040517f08c379a0000000000000000000000000000000000000000000000000000000008152600401610a5990612e26565b60405180910390fd5b8060016000610a6f610f22565b73ffffffffffffffffffffffffffffffffffffffff1673ffffffffffffffffffffffffffffffffffffffff16815260200190815260200160002060008473ffffffffffffffffffffffffffffffffffffffff1673ffffffffffffffffffffffffffffffffffffffff16815260200190815260200160002060006101000a81548160ff0219169083151502179055508173ffffffffffffffffffffffffffffffffffffffff16610b1c610f22565b73ffffffffffffffffffffffffffffffffffffffff167f17307eab39ab6107e8899845ad3d59bd9653f200f220920489ca2b5937696c3183604051610b619190612c89565b60405180910390a35050565b610b75611df3565b600560008381526020019081526020016000206040518060800160405290816000820160009054906101000a900460ff1660ff1660ff1681526020016000820160019054906101000a900460ff1660ff1660ff168152602001600182015481526020016002820154815250509050919050565b600081565b6000600160008473ffffffffffffffffffffffffffffffffffffffff1673ffffffffffffffffffffffffffffffffffffffff16815260200190815260200160002060008373ffffffffffffffffffffffffffffffffffffffff1673ffffffffffffffffffffffffffffffffffffffff16815260200190815260200160002060009054906101000a900460ff16905092915050565b610c89610f22565b73ffffffffffffffffffffffffffffffffffffffff168573ffffffffffffffffffffffffffffffffffffffff161480610ccf5750610cce85610cc9610f22565b610bed565b5b610d0e576040517f08c379a0000000000000000000000000000000000000000000000000000000008152600401610d0590612d66565b60405180910390fd5b610d1b85858585856114e6565b5050505050565b610d2a610f22565b73ffffffffffffffffffffffffffffffffffffffff16610d486109c2565b73ffffffffffffffffffffffffffffffffffffffff1614610d9e576040517f08c379a0000000000000000000000000000000000000000000000000000000008152600401610d9590612e06565b60405180910390fd5b600073ffffffffffffffffffffffffffffffffffffffff168173ffffffffffffffffffffffffffffffffffffffff161415610e0e576040517f08c379a0000000000000000000000000000000000000000000000000000000008152600401610e0590612d26565b60405180910390fd5b610e1781611420565b50565b8273ffffffffffffffffffffffffffffffffffffffff163373ffffffffffffffffffffffffffffffffffffffff1614610e5257600080fd5b610e5d838383611768565b505050565b600060056000838152602001908152602001600020905080600201548160010154610e8d919061302f565b4210610e9857600080fd5b4281600101819055505050565b600080823b905060008111915050919050565b60007f01ffc9a7000000000000000000000000000000000000000000000000000000007bffffffffffffffffffffffffffffffffffffffffffffffffffffffff1916827bffffffffffffffffffffffffffffffffffffffffffffffffffffffff1916149050919050565b600033905090565b600073ffffffffffffffffffffffffffffffffffffffff168473ffffffffffffffffffffffffffffffffffffffff161415610f9a576040517f08c379a0000000000000000000000000000000000000000000000000000000008152600401610f9190612e86565b60405180910390fd5b6000610fa4610f22565b9050610fc581600087610fb688611985565b610fbf88611985565b87611a4b565b8260008086815260200190815260200160002060008773ffffffffffffffffffffffffffffffffffffffff1673ffffffffffffffffffffffffffffffffffffffff1681526020019081526020016000206000828254611024919061302f565b925050819055508473ffffffffffffffffffffffffffffffffffffffff16600073ffffffffffffffffffffffffffffffffffffffff168273ffffffffffffffffffffffffffffffffffffffff167fc3d58168c5ae7397731d063d5bbf3d657854427343f4c083240f7aacaa2d0f6287876040516110a2929190612edc565b60405180910390a46110b981600087878787611a53565b5050505050565b8151835114611104576040517f08c379a00000000000000000000000000000000000000000000000000000000081526004016110fb90612e66565b60405180910390fd5b600073ffffffffffffffffffffffffffffffffffffffff168473ffffffffffffffffffffffffffffffffffffffff161415611174576040517f08c379a000000000000000000000000000000000000000000000000000000000815260040161116b90612d86565b60405180910390fd5b600061117e610f22565b905061118e818787878787611a4b565b60005b845181101561138b5760008582815181106111d5577f4e487b7100000000000000000000000000000000000000000000000000000000600052603260045260246000fd5b60200260200101519050600085838151811061121a577f4e487b7100000000000000000000000000000000000000000000000000000000600052603260045260246000fd5b60200260200101519050600080600084815260200190815260200160002060008b73ffffffffffffffffffffffffffffffffffffffff1673ffffffffffffffffffffffffffffffffffffffff168152602001908152602001600020549050818110156112bb576040517f08c379a00000000000000000000000000000000000000000000000000000000081526004016112b290612de6565b60405180910390fd5b81810360008085815260200190815260200160002060008c73ffffffffffffffffffffffffffffffffffffffff1673ffffffffffffffffffffffffffffffffffffffff168152602001908152602001600020819055508160008085815260200190815260200160002060008b73ffffffffffffffffffffffffffffffffffffffff1673ffffffffffffffffffffffffffffffffffffffff1681526020019081526020016000206000828254611370919061302f565b92505081905550505050806113849061317a565b9050611191565b508473ffffffffffffffffffffffffffffffffffffffff168673ffffffffffffffffffffffffffffffffffffffff168273ffffffffffffffffffffffffffffffffffffffff167f4a39dc06d4c0dbc64b70af90fd698a233a518aa5d07e595d983b8c0526c8f7fb8787604051611402929190612c52565b60405180910390a4611418818787878787611c23565b505050505050565b6000600360009054906101000a900473ffffffffffffffffffffffffffffffffffffffff16905081600360006101000a81548173ffffffffffffffffffffffffffffffffffffffff021916908373ffffffffffffffffffffffffffffffffffffffff1602179055508173ffffffffffffffffffffffffffffffffffffffff168173ffffffffffffffffffffffffffffffffffffffff167f8be0079c531659141344cd1fd0a4f28419497f9722a3daafe3b4186f6b6457e060405160405180910390a35050565b600073ffffffffffffffffffffffffffffffffffffffff168473ffffffffffffffffffffffffffffffffffffffff161415611556576040517f08c379a000000000000000000000000000000000000000000000000000000000815260040161154d90612d86565b60405180910390fd5b6000611560610f22565b905061158081878761157188611985565b61157a88611985565b87611a4b565b600080600086815260200190815260200160002060008873ffffffffffffffffffffffffffffffffffffffff1673ffffffffffffffffffffffffffffffffffffffff16815260200190815260200160002054905083811015611617576040517f08c379a000000000000000000000000000000000000000000000000000000000815260040161160e90612de6565b60405180910390fd5b83810360008087815260200190815260200160002060008973ffffffffffffffffffffffffffffffffffffffff1673ffffffffffffffffffffffffffffffffffffffff168152602001908152602001600020819055508360008087815260200190815260200160002060008873ffffffffffffffffffffffffffffffffffffffff1673ffffffffffffffffffffffffffffffffffffffff16815260200190815260200160002060008282546116cc919061302f565b925050819055508573ffffffffffffffffffffffffffffffffffffffff168773ffffffffffffffffffffffffffffffffffffffff168373ffffffffffffffffffffffffffffffffffffffff167fc3d58168c5ae7397731d063d5bbf3d657854427343f4c083240f7aacaa2d0f628888604051611749929190612edc565b60405180910390a461175f828888888888611a53565b50505050505050565b600073ffffffffffffffffffffffffffffffffffffffff168373ffffffffffffffffffffffffffffffffffffffff1614156117d8576040517f08c379a00000000000000000000000000000000000000000000000000000000081526004016117cf90612dc6565b60405180910390fd5b60006117e2610f22565b9050611812818560006117f487611985565b6117fd87611985565b60405180602001604052806000815250611a4b565b600080600085815260200190815260200160002060008673ffffffffffffffffffffffffffffffffffffffff1673ffffffffffffffffffffffffffffffffffffffff168152602001908152602001600020549050828110156118a9576040517f08c379a00000000000000000000000000000000000000000000000000000000081526004016118a090612d46565b60405180910390fd5b82810360008086815260200190815260200160002060008773ffffffffffffffffffffffffffffffffffffffff1673ffffffffffffffffffffffffffffffffffffffff16815260200190815260200160002081905550600073ffffffffffffffffffffffffffffffffffffffff168573ffffffffffffffffffffffffffffffffffffffff168373ffffffffffffffffffffffffffffffffffffffff167fc3d58168c5ae7397731d063d5bbf3d657854427343f4c083240f7aacaa2d0f628787604051611976929190612edc565b60405180910390a45050505050565b60606000600167ffffffffffffffff8111156119ca577f4e487b7100000000000000000000000000000000000000000000000000000000600052604160045260246000fd5b6040519080825280602002602001820160405280156119f85781602001602082028036833780820191505090505b5090508281600081518110611a36577f4e487b7100000000000000000000000000000000000000000000000000000000600052603260045260246000fd5b60200260200101818152505080915050919050565b505050505050565b611a728473ffffffffffffffffffffffffffffffffffffffff16610ea5565b15611c1b578373ffffffffffffffffffffffffffffffffffffffff1663f23a6e6187878686866040518663ffffffff1660e01b8152600401611ab8959493929190612bd6565b602060405180830381600087803b158015611ad257600080fd5b505af1925050508015611b0357506040513d601f19601f82011682018060405250810190611b0091906123a5565b60015b611b9257611b0f61326e565b80611b1a5750611b57565b806040517f08c379a0000000000000000000000000000000000000000000000000000000008152600401611b4e9190612ca4565b60405180910390fd5b6040517f08c379a0000000000000000000000000000000000000000000000000000000008152600401611b8990612cc6565b60405180910390fd5b63f23a6e6160e01b7bffffffffffffffffffffffffffffffffffffffffffffffffffffffff1916817bffffffffffffffffffffffffffffffffffffffffffffffffffffffff191614611c19576040517f08c379a0000000000000000000000000000000000000000000000000000000008152600401611c1090612ce6565b60405180910390fd5b505b505050505050565b611c428473ffffffffffffffffffffffffffffffffffffffff16610ea5565b15611deb578373ffffffffffffffffffffffffffffffffffffffff1663bc197c8187878686866040518663ffffffff1660e01b8152600401611c88959493929190612b6e565b602060405180830381600087803b158015611ca257600080fd5b505af1925050508015611cd357506040513d601f19601f82011682018060405250810190611cd091906123a5565b60015b611d6257611cdf61326e565b80611cea5750611d27565b806040517f08c379a0000000000000000000000000000000000000000000000000000000008152600401611d1e9190612ca4565b60405180910390fd5b6040517f08c379a0000000000000000000000000000000000000000000000000000000008152600401611d5990612cc6565b60405180910390fd5b63bc197c8160e01b7bffffffffffffffffffffffffffffffffffffffffffffffffffffffff1916817bffffffffffffffffffffffffffffffffffffffffffffffffffffffff191614611de9576040517f08c379a0000000000000000000000000000000000000000000000000000000008152600401611de090612ce6565b60405180910390fd5b505b505050505050565b6040518060800160405280600060ff168152602001600060ff16815260200160008152602001600081525090565b6000611e34611e2f84612f36565b612f05565b90508083825260208201905082856020860282011115611e5357600080fd5b60005b85811015611e835781611e698882611f37565b845260208401935060208301925050600181019050611e56565b5050509392505050565b6000611ea0611e9b84612f62565b612f05565b90508083825260208201905082856020860282011115611ebf57600080fd5b60005b85811015611eef5781611ed58882612009565b845260208401935060208301925050600181019050611ec2565b5050509392505050565b6000611f0c611f0784612f8e565b612f05565b905082815260208101848484011115611f2457600080fd5b611f2f848285613106565b509392505050565b600081359050611f4681613324565b92915050565b600082601f830112611f5d57600080fd5b8135611f6d848260208601611e21565b91505092915050565b600082601f830112611f8757600080fd5b8135611f97848260208601611e8d565b91505092915050565b600081359050611faf8161333b565b92915050565b600081359050611fc481613352565b92915050565b600081519050611fd981613352565b92915050565b600082601f830112611ff057600080fd5b8135612000848260208601611ef9565b91505092915050565b60008135905061201881613369565b92915050565b60008135905061202d81613380565b92915050565b60006020828403121561204557600080fd5b600061205384828501611f37565b91505092915050565b6000806040838503121561206f57600080fd5b600061207d85828601611f37565b925050602061208e85828601611f37565b9150509250929050565b600080600080600060a086880312156120b057600080fd5b60006120be88828901611f37565b95505060206120cf88828901611f37565b945050604086013567ffffffffffffffff8111156120ec57600080fd5b6120f888828901611f76565b935050606086013567ffffffffffffffff81111561211557600080fd5b61212188828901611f76565b925050608086013567ffffffffffffffff81111561213e57600080fd5b61214a88828901611fdf565b9150509295509295909350565b600080600080600060a0868803121561216f57600080fd5b600061217d88828901611f37565b955050602061218e88828901611f37565b945050604061219f88828901612009565b93505060606121b088828901612009565b925050608086013567ffffffffffffffff8111156121cd57600080fd5b6121d988828901611fdf565b9150509295509295909350565b600080604083850312156121f957600080fd5b600061220785828601611f37565b925050602061221885828601611fa0565b9150509250929050565b6000806040838503121561223557600080fd5b600061224385828601611f37565b925050602061225485828601612009565b9150509250929050565b60008060006060848603121561227357600080fd5b600061228186828701611f37565b935050602061229286828701612009565b92505060406122a386828701612009565b9150509250925092565b600080600080608085870312156122c357600080fd5b60006122d187828801611f37565b94505060206122e28782880161201e565b93505060406122f38782880161201e565b925050606061230487828801612009565b91505092959194509250565b6000806040838503121561232357600080fd5b600083013567ffffffffffffffff81111561233d57600080fd5b61234985828601611f4c565b925050602083013567ffffffffffffffff81111561236657600080fd5b61237285828601611f76565b9150509250929050565b60006020828403121561238e57600080fd5b600061239c84828501611fb5565b91505092915050565b6000602082840312156123b757600080fd5b60006123c584828501611fca565b91505092915050565b6000602082840312156123e057600080fd5b60006123ee84828501612009565b91505092915050565b60006124038383612b26565b60208301905092915050565b61241881613085565b82525050565b600061242982612fce565b6124338185612ffc565b935061243e83612fbe565b8060005b8381101561246f57815161245688826123f7565b975061246183612fef565b925050600181019050612442565b5085935050505092915050565b61248581613097565b82525050565b600061249682612fd9565b6124a0818561300d565b93506124b0818560208601613115565b6124b981613250565b840191505092915050565b60006124cf82612fe4565b6124d9818561301e565b93506124e9818560208601613115565b6124f281613250565b840191505092915050565b600061250a60348361301e565b91507f455243313135353a207472616e7366657220746f206e6f6e204552433131353560008301527f526563656976657220696d706c656d656e7465720000000000000000000000006020830152604082019050919050565b600061257060288361301e565b91507f455243313135353a204552433131353552656365697665722072656a6563746560008301527f6420746f6b656e730000000000000000000000000000000000000000000000006020830152604082019050919050565b60006125d6602b8361301e565b91507f455243313135353a2062616c616e636520717565727920666f7220746865207a60008301527f65726f20616464726573730000000000000000000000000000000000000000006020830152604082019050919050565b600061263c60268361301e565b91507f4f776e61626c653a206e6577206f776e657220697320746865207a65726f206160008301527f64647265737300000000000000000000000000000000000000000000000000006020830152604082019050919050565b60006126a260248361301e565b91507f455243313135353a206275726e20616d6f756e7420657863656564732062616c60008301527f616e6365000000000000000000000000000000000000000000000000000000006020830152604082019050919050565b600061270860298361301e565b91507f455243313135353a2063616c6c6572206973206e6f74206f776e6572206e6f7260008301527f20617070726f76656400000000000000000000000000000000000000000000006020830152604082019050919050565b600061276e60258361301e565b91507f455243313135353a207472616e7366657220746f20746865207a65726f20616460008301527f64726573730000000000000000000000000000000000000000000000000000006020830152604082019050919050565b60006127d460328361301e565b91507f455243313135353a207472616e736665722063616c6c6572206973206e6f742060008301527f6f776e6572206e6f7220617070726f76656400000000000000000000000000006020830152604082019050919050565b600061283a60238361301e565b91507f455243313135353a206275726e2066726f6d20746865207a65726f206164647260008301527f65737300000000000000000000000000000000000000000000000000000000006020830152604082019050919050565b60006128a0602a8361301e565b91507f455243313135353a20696e73756666696369656e742062616c616e636520666f60008301527f72207472616e73666572000000000000000000000000000000000000000000006020830152604082019050919050565b600061290660208361301e565b91507f4f776e61626c653a2063616c6c6572206973206e6f7420746865206f776e65726000830152602082019050919050565b600061294660298361301e565b91507f455243313135353a2073657474696e6720617070726f76616c2073746174757360008301527f20666f722073656c6600000000000000000000000000000000000000000000006020830152604082019050919050565b60006129ac60298361301e565b91507f455243313135353a206163636f756e747320616e6420696473206c656e67746860008301527f206d69736d6174636800000000000000000000000000000000000000000000006020830152604082019050919050565b6000612a1260288361301e565b91507f455243313135353a2069647320616e6420616d6f756e7473206c656e6774682060008301527f6d69736d617463680000000000000000000000000000000000000000000000006020830152604082019050919050565b6000612a7860218361301e565b91507f455243313135353a206d696e7420746f20746865207a65726f2061646472657360008301527f73000000000000000000000000000000000000000000000000000000000000006020830152604082019050919050565b608082016000820151612ae76000850182612b44565b506020820151612afa6020850182612b44565b506040820151612b0d6040850182612b26565b506060820151612b206060850182612b26565b50505050565b612b2f816130ef565b82525050565b612b3e816130ef565b82525050565b612b4d816130f9565b82525050565b6000602082019050612b68600083018461240f565b92915050565b600060a082019050612b83600083018861240f565b612b90602083018761240f565b8181036040830152612ba2818661241e565b90508181036060830152612bb6818561241e565b90508181036080830152612bca818461248b565b90509695505050505050565b600060a082019050612beb600083018861240f565b612bf8602083018761240f565b612c056040830186612b35565b612c126060830185612b35565b8181036080830152612c24818461248b565b90509695505050505050565b60006020820190508181036000830152612c4a818461241e565b905092915050565b60006040820190508181036000830152612c6c818561241e565b90508181036020830152612c80818461241e565b90509392505050565b6000602082019050612c9e600083018461247c565b92915050565b60006020820190508181036000830152612cbe81846124c4565b905092915050565b60006020820190508181036000830152612cdf816124fd565b9050919050565b60006020820190508181036000830152612cff81612563565b9050919050565b60006020820190508181036000830152612d1f816125c9565b9050919050565b60006020820190508181036000830152612d3f8161262f565b9050919050565b60006020820190508181036000830152612d5f81612695565b9050919050565b60006020820190508181036000830152612d7f816126fb565b9050919050565b60006020820190508181036000830152612d9f81612761565b9050919050565b60006020820190508181036000830152612dbf816127c7565b9050919050565b60006020820190508181036000830152612ddf8161282d565b9050919050565b60006020820190508181036000830152612dff81612893565b9050919050565b60006020820190508181036000830152612e1f816128f9565b9050919050565b60006020820190508181036000830152612e3f81612939565b9050919050565b60006020820190508181036000830152612e5f8161299f565b9050919050565b60006020820190508181036000830152612e7f81612a05565b9050919050565b60006020820190508181036000830152612e9f81612a6b565b9050919050565b6000608082019050612ebb6000830184612ad1565b92915050565b6000602082019050612ed66000830184612b35565b92915050565b6000604082019050612ef16000830185612b35565b612efe6020830184612b35565b9392505050565b6000604051905081810181811067ffffffffffffffff82111715612f2c57612f2b613221565b5b8060405250919050565b600067ffffffffffffffff821115612f5157612f50613221565b5b602082029050602081019050919050565b600067ffffffffffffffff821115612f7d57612f7c613221565b5b602082029050602081019050919050565b600067ffffffffffffffff821115612fa957612fa8613221565b5b601f19601f8301169050602081019050919050565b6000819050602082019050919050565b600081519050919050565b600081519050919050565b600081519050919050565b6000602082019050919050565b600082825260208201905092915050565b600082825260208201905092915050565b600082825260208201905092915050565b600061303a826130ef565b9150613045836130ef565b9250827fffffffffffffffffffffffffffffffffffffffffffffffffffffffffffffffff0382111561307a576130796131c3565b5b828201905092915050565b6000613090826130cf565b9050919050565b60008115159050919050565b60007fffffffff0000000000000000000000000000000000000000000000000000000082169050919050565b600073ffffffffffffffffffffffffffffffffffffffff82169050919050565b6000819050919050565b600060ff82169050919050565b82818337600083830152505050565b60005b83811015613133578082015181840152602081019050613118565b83811115613142576000848401525b50505050565b6000600282049050600182168061316057607f821691505b60208210811415613174576131736131f2565b5b50919050565b6000613185826130ef565b91507fffffffffffffffffffffffffffffffffffffffffffffffffffffffffffffffff8214156131b8576131b76131c3565b5b600182019050919050565b7f4e487b7100000000000000000000000000000000000000000000000000000000600052601160045260246000fd5b7f4e487b7100000000000000000000000000000000000000000000000000000000600052602260045260246000fd5b7f4e487b7100000000000000000000000000000000000000000000000000000000600052604160045260246000fd5b6000601f19601f8301169050919050565b60008160e01c9050919050565b600060443d101561327e57613321565b60046000803e61328f600051613261565b6308c379a081146132a05750613321565b60405160043d036004823e80513d602482011167ffffffffffffffff821117156132cc57505050613321565b808201805167ffffffffffffffff8111156132eb575050505050613321565b8060208301013d850181111561330657505050505050613321565b61330f82613250565b60208401016040528296505050505050505b90565b61332d81613085565b811461333857600080fd5b50565b61334481613097565b811461334f57600080fd5b50565b61335b816130a3565b811461336657600080fd5b50565b613372816130ef565b811461337d57600080fd5b50565b613389816130f9565b811461339457600080fd5b5056fea2646970667358221220655763a0f9ca86b3df55c040c4cd168d19f944f15dd1c57d40ec96a4d1090d6a64736f6c6343000800003368747470733a2f2f303965756e3563356a6633782e7573656d6f72616c69732e636f6d2f7b69647d2e6a736f6e",
  "immutableReferences": {},
  "source": "// SPDX-License-Identifier: GPL-3.0\npragma solidity ^0.8.0;\n\nimport \"../node_modules/@openzeppelin/contracts/token/ERC1155/ERC1155.sol\";\nimport \"../node_modules/@openzeppelin/contracts/access/Ownable.sol\";\n\ncontract NFT_Contract is ERC1155, Ownable {\n  uint256 nextId = 0;\n\n  struct Pet {\n    uint8 damage;\n    uint8 magic;\n    uint256 lastMeal;\n    uint256 endurance;\n  }\n\n  mapping(uint256 => Pet) private _tokenDetails;\n\n  uint256 public constant ARTWORK = 0;\n  uint256 public constant PHOTO = 1;\n\n  constructor() ERC1155(\"https://09eun5c5jf3x.usemoralis.com/{id}.json\") {\n    _mint(msg.sender, ARTWORK, 1, \"\");\n    _mint(msg.sender, PHOTO, 2, \"\");\n  }\n\n  function getTokenDetails(uint256 tokenId) public view returns (Pet memory) {\n    return _tokenDetails[tokenId];\n  }\n\n  function mint(\n    address account,\n    uint8 _damage,\n    uint8 _magic,\n    uint256 _endurance\n  ) public onlyOwner {\n    _tokenDetails[nextId] = Pet(_damage, _magic, block.timestamp, _endurance);\n    _mint(account, nextId, 1, \"\");\n    nextId++;\n  }\n\n  function feed(uint256 tokenId) public {\n    Pet storage pet = _tokenDetails[tokenId];\n    require(block.timestamp < pet.lastMeal + pet.endurance);\n    pet.lastMeal = block.timestamp;\n  }\n\n  function burn(\n    address account,\n    uint256 id,\n    uint256 amount\n  ) public {\n    require(msg.sender == account);\n    _burn(account, id, amount);\n  }\n\n  function _beforeTokenTransfer(\n    address operator,\n    address from,\n    address to,\n    uint256[] memory ids,\n    uint256[] memory amounts,\n    bytes memory data,\n    uint256 tokenId\n  ) internal virtual {\n    Pet storage pet = _tokenDetails[tokenId];\n    require(block.timestamp < pet.lastMeal + pet.endurance); // Pet is still alive\n  }\n}\n",
  "sourcePath": "/home/cores1369/nft_game/contracts/NFT_Contract.sol",
  "compiler": {
    "name": "solc",
    "version": "0.8.0+commit.c7dfd78e.Emscripten.clang"
  },
  "schemaVersion": "3.4.3",
  "updatedAt": "2021-11-01T12:30:46.941Z",
  "devdoc": {
    "kind": "dev",
    "methods": {
      "balanceOf(address,uint256)": {
        "details": "See {IERC1155-balanceOf}. Requirements: - `account` cannot be the zero address."
      },
      "balanceOfBatch(address[],uint256[])": {
        "details": "See {IERC1155-balanceOfBatch}. Requirements: - `accounts` and `ids` must have the same length."
      },
      "isApprovedForAll(address,address)": {
        "details": "See {IERC1155-isApprovedForAll}."
      },
      "owner()": {
        "details": "Returns the address of the current owner."
      },
      "renounceOwnership()": {
        "details": "Leaves the contract without owner. It will not be possible to call `onlyOwner` functions anymore. Can only be called by the current owner. NOTE: Renouncing ownership will leave the contract without an owner, thereby removing any functionality that is only available to the owner."
      },
      "safeBatchTransferFrom(address,address,uint256[],uint256[],bytes)": {
        "details": "See {IERC1155-safeBatchTransferFrom}."
      },
      "safeTransferFrom(address,address,uint256,uint256,bytes)": {
        "details": "See {IERC1155-safeTransferFrom}."
      },
      "setApprovalForAll(address,bool)": {
        "details": "See {IERC1155-setApprovalForAll}."
      },
      "supportsInterface(bytes4)": {
        "details": "See {IERC165-supportsInterface}."
      },
      "transferOwnership(address)": {
        "details": "Transfers ownership of the contract to a new account (`newOwner`). Can only be called by the current owner."
      },
      "uri(uint256)": {
        "details": "See {IERC1155MetadataURI-uri}. This implementation returns the same URI for *all* token types. It relies on the token type ID substitution mechanism https://eips.ethereum.org/EIPS/eip-1155#metadata[defined in the EIP]. Clients calling this function must replace the `\\{id\\}` substring with the actual token type ID."
      }
    },
    "version": 1
  },
  "userdoc": {
    "kind": "user",
    "methods": {},
    "version": 1
  }
}